:020000020000FC
:1000000000C008E00EBF0FEF0DBF112400E0009309
:10001000800003E00093810007EA00932C0233D0B4
:10002000F1E0E0E0D1E0C4E628D00FD0F1E0E4E672
:1000300042D011D0F1E0E0E0D1E0C8EC1ED005D014
:10004000F1E0E8EC48D010D0FFCF00E0009385004D
:1000500000938400089520918400309185002093BE
:100060002D0230932E020895209184003091850056
:1000700020932F0230933002089544E601910993B2
:100080004A95E1F70895F1E0E0E044E604D00193F9
:100090004A95E1F7089500912C02102F11700695F2
:1000A000112311F028EB022700932C02053610F0E3
:1000B0000556FCCF089553E6EF01662708811981A4
:1000C000101710F418830983219663956517B0F310
:1000D0005A9591F70895EF0140E0433610F5542FFB
:1000E000FE01E40FF11DDF01642F6395643658F4BF
:1000F00031960081DE01A50FB11D1C91011708F496
:10010000562F6395F3CF541751F0FE01E40FF11D04
:100110000081DE01A50FB11D1C9110830C93439546
:04012000DCCF089593
:00000001FF
